:100000000C9434000C9451000C9451000C94510049
:100010000C94DB000C9451000C9451000C94510092
:100020000C9451000C9451000C9451000C94BB00A2
:100030000C9451000C9451000C9480000C945100CD
:100040000C9451000C9451000C9451000C945100EC
:100050000C9451000C9451000C9451000C945100DC
:100060000C9451000C94510011241FBECFEFD8E026
:10007000DEBFCDBF11E0A0E0B1E0E2E1F5E102C0FA
:1000800005900D92AA3CB107D9F721E0AAECB1E0A6
:1000900001C01D92A83EB207E1F70E9472040C94C1
:1000A000870A0C9400009C01EFE6F0E090819260DA
:1000B0009083E1E8F0E0908198609083309389002C
:1000C0002093880080818160808380818460808328
:1000D00008959C0150E040E062E17AE780E090E022
:1000E0000E94330727BD85B5846085BD089584B51A
:1000F000826084BDEEE6F0E08081826080830895B6
:100100001F920F920FB60F9211242F933F938F934C
:100110009F93EF93FF938091CA019091CB01019639
:100120009093CB018093CA01E091CC01F091CD0175
:100130008091CA019091CB01EE0FFF1FEE5CFE4F44
:10014000208131812817390739F485B58B7F85BD2A
:100150001092CB011092CA0185B190E1892785B92F
:10016000FF91EF919F918F913F912F910F900FBE33
:100170000F901F9018951F920F920FB60F92112497
:100180008F939F938BB194E089278BB99F918F9127
:100190000F900FBE0F901F90189505966AE070E0C3
:1001A0000E941F076150710908F4089585E38A953C
:1001B000F1F70000F7CF1F920F920FB60F921124A4
:1001C0008F939F9386B1982F92709093D8018072ED
:1001D0008093E5018091D501811182C08091DF017A
:1001E000811134C08091D801811124C08091E50132
:1001F000882301F181E08093E20180916601909172
:100200006701019690936701809366019091E201E6
:100210008091DF01981739F081E08093D4018091BB
:10022000E2018093DF019F918F910F900FBE0F909D
:100230001F9018958091D801882341F38091E501A2
:100240008111E4CF83E08093E20118C08091DF0147
:100250008130D1F48091D801882331F08091E5017B
:10026000882311F082E0C7CF8091D8018111CECFD1
:100270008091E5018111CACF1092E201809166015F
:10028000909167010197BECF8091DF01823089F4A0
:100290008091E501811102C083E0ADCF8091D8014A
:1002A0008111B4CF8091E501882309F4AFCF81E0BB
:1002B000CACF8091D801811107C08091E5018111D9
:1002C00003C01092E20199CF8091D801882309F4EC
:1002D0009DCF8091E501882309F498CF82E0B3CFC8
:1002E000813009F0A0CF9091DF01911121C0909150
:1002F000D801911110C09091E501992361F080938C
:10030000E2018091CC019091CD0101969093CD01B5
:100310008093CC017BCF8091D801882309F476CFDC
:100320008091E501811172CF83E08093E20118C0D2
:100330009091DF019130D1F48091D801882331F080
:100340008091E501882311F082E0D9CF8091D80116
:1003500081115CCF8091E501811158CF1092E201AB
:100360008091CC019091CD010197D0CF9091DF0188
:10037000923081F49091E501911102C083E0BFCFEA
:100380009091D801911142CF9091E501992309F400
:100390003DCFCBCF8091D801811107C08091E5017D
:1003A000811103C01092E201ACCF8091D801882363
:1003B00009F42CCF8091E501882309F427CF82E04E
:1003C000B4CF0F931F93CF93DF93CDB7DEB72F97A3
:1003D0000FB6F894DEBF0FBECDBF86ED91E00E9450
:1003E000D203882309F45BC061E080E00E941B0413
:1003F0008091D70190E0982F88272091D601820F15
:10040000911D9093D1018093D0012091D001309122
:10041000D10149E0429FC001439F900D112497FDF7
:10042000079623E0959587952A95E1F7805C9E4F86
:100430006AE070E00E941F076093DD017093DE01A7
:100440008093D9019093DA019F938F937F936F9359
:1004500088E691E09F938F931F928FE08F938E0198
:100460000F5F1F4F1F930F930E948807C8010E94C0
:1004700066040E943C038091DD019091DE010FB67D
:10048000F894DEBF0FBECDBF2F960FB6F894DEBF37
:100490000FBECDBFDF91CF911F910F910895809135
:1004A000DD019091DE01F0CF0F931F93CF93DF9387
:1004B000CDB7DEB72F970FB6F894DEBF0FBECDBF16
:1004C00081E00E94080460E080E00E941B0480E755
:1004D00091E00E94660460E081E00E941B0480E8D5
:1004E00091E00E9466042FEF83ED90E3215080405D
:1004F0009040E1F700C0000081E00E9408040E94E3
:10050000E10164E081E00E941B048EE891E00E941A
:10051000660461E081E00E941B048BE991E00E9487
:10052000660461E081E00E941B0480916601909165
:1005300067019F938F9380E991E09F938F931F9220
:100540008FE08F938E010F5F1F4F1F930F930E94B9
:100550008807C8010E9466046EE080E00E941B04C8
:100560008DE991E00E9466046EE080E00E941B0429
:10057000E091CC01F091CD01EE0FFF1FE050FF4F55
:10058000808191810E9466046EE081E00E941B04DC
:1005900083E991E00E94660468E080E00E941B0409
:1005A00085E991E00E9466040FB6F894DEBF0FBEA5
:1005B000CDBF2F960FB6F894DEBF0FBECDBFDF9133
:1005C000CF911F910F91089529E0AC01249FC001A4
:1005D000259F900D112497FD079623E0959587950B
:1005E0002A95E1F7805C9E4F08953B9A8FE599E04C
:1005F0000197F1F700C000003B988BE091E0019774
:10060000F1F700C0000033990AC0339BFECF87EC9E
:1006100090E00197F1F700C0000081E0089580E0CC
:1006200008953B9A8AE08A95F1F700C03B988FEED7
:1006300090E00197F1F700C0000008953B9A8FEE1B
:1006400090E00197F1F700C000003B989AE09A957E
:10065000F1F700C00895CF93DF93D82FC8E0D0FF03
:1006600008C00E941103D695C150C9F7DF91CF9100
:1006700008950E941E03F7CF0E94F502882331F0EF
:100680008CEC0E942B0384E40C942B0308953B9A7A
:100690008AE08A95F1F700C03B98E5E3EA95F1F727
:1006A000000086B1E7ECF0E03197F1F700C0000000
:1006B000887008951F93CF93DF93D8E011E0C0E0D6
:1006C0000E9447038111C12B110FD150C9F78C2F04
:1006D000DF91CF911F910895EF92FF920F931F9397
:1006E000CF93DF93CDB7DEB729970FB6F894DEBF6F
:1006F0000FBECDBF3B9843980E94F50281110EC0FA
:1007000080E029960FB6F894DEBF0FBECDBFDF9113
:10071000CF911F910F91FF90EF9008958CEC0E9464
:100720002B038EEB0E942B038E010F5F1F4F7E0168
:100730002AE0E20EF11C0E945A03F80181938F0116
:10074000EE15FF05C1F70E94F5028823C9F28CEC73
:100750000E942B038EE40E942B038B810E942B03AB
:100760008C810E942B038FE70E942B038FE891E07E
:100770000197F1F700C000000E94F502882309F4F8
:10078000BFCF8CEC0E942B0388E40E942B039FEFC9
:10079000E9EFF0E09150E040F040E1F700C00000E8
:1007A00081E0AFCFCF93DF93EC010E944703882312
:1007B00001F10E94F5028823D1F08CEC0E942B03FA
:1007C0008EEB0E942B030E945A0388830E945A03D7
:1007D00089830E945A030E945A030E945A030E946E
:1007E0005A030E945A030E945A030E945A0381E04E
:1007F00001C080E0DF91CF9108959BB19F709BB9BC
:100800009BB1807F892B8BB9299A299A29980895C1
:10081000CF93C82F2898807F0E94FD038C2F82954C
:10082000807F0E94FD038FE39FE10197F1F700C0F5
:100830000000CF910895811104C080E8860F0C94C8
:10084000080480ECFBCF84B1836084B98AB1806FE7
:100850008AB98FE59AEE0197F1F700C0000080E3B6
:100860000E94FD038FE19EE40197F1F700C00000B4
:1008700080E30E94FD038FED91E00197F1F700C046
:10088000000080E30E94FD0380E20E94FD038FE3ED
:100890009FE10197F1F700C0000088E20E94080480
:1008A0008FE00C940804CF93C82F289A807F0E9471
:1008B000FD038C2F8295807F0E94FD038FE39FE1D3
:1008C0000197F1F700C00000CF910895CF93DF9317
:1008D000EC018991811103C0DF91CF9108950E94AD
:1008E0005304F7CFCF93DF93CDB7DEB72F970FB673
:1008F000F894DEBF0FBECDBF8CE291E00E94360AB5
:1009000090E090936701809366018DE291E00E94F0
:10091000360A90E09093CD018093CC0180916501DF
:10092000082E000C990B2091660130916701821707
:1009300093072CF490936701809366010CC080911B
:100940006401082E000C990B20916601309167011B
:10095000281739077CF38091CC019091CD014997FC
:100960000CF4DCC188E190E09093CD018093CC0140
:10097000249A419A459A429A439A449A529A539A8F
:100980005A985B98809181008E7F8093810080913E
:1009900081008D7F80938100809181008B7F809387
:1009A00081000E9423040E946C0380916800826091
:1009B0008093680080916C00826080936C008091CD
:1009C0006C00806280936C0078940E9454025B9A61
:1009D00086B182708093D80186B180728093E501E0
:1009E0008091D8018111A5C18091E5018111A1C13A
:1009F0001092DF018091DF018093E2010E94770075
:100A000059E0652E6AE0A62EB12C78E6E72E71E05B
:100A1000F72E8E010F5F1F4FE0E9CE2EE1E0DE2EB4
:100A2000F8E18F2E912C4FE0742E8CE291E00E9421
:100A3000360A90E090936701809366018DE291E021
:100A40000E94360A90E09093CD018093CC0186ED10
:100A500091E00E94D203882309F448C061E080E05D
:100A60000E941B048091D70190E0982F8827209145
:100A7000D601820F911D9093D1018093D0012091D6
:100A8000D0013091D101629EC001639E900D11246E
:100A900097FD079623E0959587952A95E1F7805C69
:100AA0009E4F9093E4018093E301B5010E941F07DC
:100AB0006093E6017093E7018093E0019093E10178
:100AC0009F938F937F936F93FF92EF921F927F92EA
:100AD0001F930F930E948807C8010E9466040E941A
:100AE0003C030FB6F894DEBF0FBECDBF8091650109
:100AF000082E000C990B2091660130916701821736
:100B0000930724F4909367018093660180916401B8
:100B1000082E000C990B209166013091670128176F
:100B2000390724F490936701809366018091CC018A
:100B30009091CD0197FF04C09092CD018092CC019D
:100B40008091CC019091CD01499724F01092CD0174
:100B50001092CC01329912C01092D5016CE081E064
:100B60000E941B048DE991E00E94660464E081E02C
:100B70000E941B048EE891E00E946604349912C022
:100B800081E08093D50164E00E941B048DE991E02F
:100B90000E9466046CE081E00E941B0488E991E0F9
:100BA0000E9466048091D401882309F43ECF6091AD
:100BB0006601709167018CE291E00E943E0A6091AB
:100BC000CC017091CD018DE291E00E943E0A10921D
:100BD000D4018091D501811162C08091660190910C
:100BE00067019093D3018093D2010E94E10120918B
:100BF000D2013091D301821B930B03970CF4B1C047
:100C0000809181008E7F80938100809181008D7F13
:100C100080938100809181008B7F809381005B981D
:100C20005A9A68E080E00E941B048AE991E00E94E1
:100C3000660468E080E00E941B048FE991E00E9456
:100C40006604E091CC01F091CD01EE0FFF1FEE5C48
:100C5000FE4F808191810E94690061E081E00E94E5
:100C60001B048BE991E00E94660461E081E00E9430
:100C70001B0480916601909167019F938F93DF928F
:100C8000CF921F927F921F930F930E948807C801F3
:100C90000E9466040FB6F894DEBF0FBECDBF8091F0
:100CA000D501813009F0C1CE6EE080E00E941B04C6
:100CB0008CE991E00E9466046EE080E00E941B04D3
:100CC000E091CC01F091CD01EE0FFF1FE050FF4FFE
:100CD000808191810E9466046EE081E00E941B0485
:100CE0008CE991E00E9466046EE081E00E941B04A2
:100CF0008091CC019091CD0197FD88C08091CC016D
:100D00009091CD010C970CF081C06EE081E00E94C3
:100D10001B0483E991E00E94660485CE8091CC019A
:100D20009091CD0197FF24CE1092CD011092CC016D
:100D30001FCE8091D801811108C08091E5018823E0
:100D400021F081E08093DF0155CE8091D801882386
:100D500031F08091E501811102C082E0F3CF83E0A0
:100D6000F1CF0E94E1012091D2013091D301821B89
:100D7000930B03970CF50E94E1012091D201309171
:100D8000D301821B930B18161906B4F484E89EE174
:100D90000E9453005B9868E080E00E941B048AE98F
:100DA00091E00E94660468E080E00E941B0484EAEF
:100DB00091E00E94660451CF0E94E1012091D2018E
:100DC0003091D301821793070CF047CF80918100B7
:100DD0008E7F80938100809181008D7F8093810040
:100DE000809181008B7F809381005A985B9A68E0A4
:100DF00080E00E941B048AE991E00E94660468E09A
:100E000080E00E941B0485E991E0D3CF8091CC0162
:100E10009091CD016EE00C9764F08091CC0190919F
:100E2000CD01489734F481E00E941B0489EA91E0E7
:100E300072CF81E00E941B048BEA91E06CCF97FB9C
:100E4000072E16F4009407D077FD09D00E945207B0
:100E500007FC05D03EF4909581959F4F08957095BD
:100E600061957F4F0895052E97FB1EF400940E9414
:100E70004A0757FD07D00E94660707FC03D04EF4CF
:100E80000C944A0750954095309521953F4F4F4F10
:100E90005F4F089590958095709561957F4F8F4F26
:100EA0009F4F0895AA1BBB1B51E107C0AA1FBB1F80
:100EB000A617B70710F0A61BB70B881F991F5A95E6
:100EC000A9F780959095BC01CD010895A1E21A2E55
:100ED000AA1BBB1BFD010DC0AA1FBB1FEE1FFF1FDE
:100EE000A217B307E407F50720F0A21BB30BE40B2E
:100EF000F50B661F771F881F991F1A9469F7609575
:100F00007095809590959B01AC01BD01CF0108952E
:100F1000AEE0B0E0EEE8F7E00C945E0A0D891E89C1
:100F20008F89988D26E02C831A83098397FF02C04E
:100F300080E090E801979E838D83AE01455E5F4F10
:100F4000698D7A8DCE0101960E94B8074D815E8130
:100F500057FD0AC02F813885421753070CF49A01B8
:100F6000020F131FF80110822E96E4E00C947A0A07
:100F7000ABE0B0E0EEEBF7E00C94500A7C013B01F3
:100F80008A01FC0117821682838181FFC8C1CE01CC
:100F900001965C01F7019381F30193FD859193FF25
:100FA00081913F01882309F453C1853239F493FDBF
:100FB000859193FF81913F01853229F4B70190E03B
:100FC0000E94A809E7CF912C212C312CFFE1F315C9
:100FD00038F08B3211F190F4803209F1833229F12B
:100FE00037FC3CC020ED280F2A3050F536FE20C0DB
:100FF0008AE0989E200D1124922E06C08D3291F029
:10100000803371F7689430F8F30193FD859193FF75
:1010100081913F018111DACF21C0689431F8689441
:1010200032F8F2CF689433F8EFCF689434F8ECCF0D
:10103000EAE02E9E200D1124222E689435F8E4CF8C
:101040008E3229F436FC04C1689436F8DDCF8C3634
:1010500019F4689437F8D8CF8836B1F2982F9F7D6D
:1010600095549330E0F08336A1F18337C1F1833595
:1010700009F063C02801F2E04F0E511CF801C08056
:10108000D180692D70E036FC02C06FEF7FEFC601A2
:101090000E9492094C01689437F882010AC00C5FE3
:1010A0001F4FFFE3F98388248394912C6501E89412
:1010B00037F833FE2DC0522C8114910471F5552060
:1010C00009F468CFB70180E290E00E94A8095A9421
:1010D000F6CFF801808189830E5F1F4FE4CF28018E
:1010E000F2E04F0E511CF801C080D180692D70E0F4
:1010F00036FC02C06FEF7FEFC6010E949D094C01D4
:101100008201D5CFB70180E290E00E94A8092A941D
:101110002814190409F0B0F7CECFF60137FC8591F9
:1011200037FE81916F01B70190E00E94A80951102C
:101130005A94F1E08F1A9108BFCF843619F089369E
:1011400009F077C0F80137FE6BC060817181828140
:1011500093810C5F1F4FF32DFF763F2E97FF09C041
:1011600090958095709561957F4F8F4F9F4F6894B4
:1011700037F82AE030E0A5010E94D809C82ECA1825
:101180008C2C432C36FE0CC0E89440F8C91440F473
:1011900034FE05C032FC03C0F32DFE7E4F2E892C99
:1011A00044FE95C0FE01EC0DF11D8081803309F0F5
:1011B00087C0242D297E422E842D8870582E43FC12
:1011C00095C040FE8FC09C2C821418F42C0C922CDD
:1011D000981844FE91C0B70180E390E00E94A809EE
:1011E00042FE09C088E790E041FE02C088E590E039
:1011F000B7010E94A809C91408F48AC0CA94D12C66
:101200009FEFC91AD90ACA0CDB1CF60182916F0143
:10121000B70190E00E94A809AC14BD04B1F74FCF0C
:1012200060817181072E000C880B990B0E5F1F4F98
:1012300092CFD32CE894D4F82AE030E0853739F106
:10124000232D297FD22E8F3601F148F48835A9F05D
:10125000F701868197812B96E2E10C946C0A803726
:1012600049F08837A9F7D4FE02C06894D2F820E18B
:1012700030E00DC06894D4F8F6CF34FE03C0822F5E
:101280008660D82E20E132E002C028E030E0F8018C
:10129000D7FE0FC060817181828193810C5F1F4FE7
:1012A000A5010E94D809C82ECA183D2CE89437F829
:1012B00067CF6081718190E080E00E5F1F4FF0CFBB
:1012C00042FC02C0839478CF8394839475CF842D9D
:1012D000867809F471CFF6CFB70180E290E00E94E2
:1012E000A80983948214C0F3512C73CF522C581840
:1012F000821408F46ECFF8CF842D867809F47BCF62
:101300008BE241FE80E247FC8DE2B70190E071CFB5
:10131000B70180E390E00E94A8099A946CCF8FEF08
:101320009FEF99CFFC010590615070400110D8F7F4
:10133000809590958E0F9F1F0895FC01615070401D
:1013400001900110D8F7809590958E0F9F1F0895FA
:101350000F931F93CF93DF93182F092FEB018B81EE
:1013600081FD09C01FEF0FEF812F902FDF91CF91EB
:101370001F910F91089582FF14C02E813F818C81AF
:101380009D81281739073CF4E881F981CF01019646
:101390009983888310838E819F8101969F838E839A
:1013A000E3CFE885F985812F0995892BA1F3DACF61
:1013B000FA01AA27283051F1203181F1E8946F9386
:1013C0006E7F6E5F7F4F8F4F9F4FAF4FB1E03ED02C
:1013D000B4E03CD0670F781F891F9A1FA11D680FCA
:1013E000791F8A1F911DA11D6A0F711D811D911DFD
:1013F000A11D20D009F468943F912AE0269F112472
:101400003019305D3193DEF6CF010895462F4770D5
:10141000405D4193B3E00FD0C9F7F6CF462F4F7030
:10142000405D4A3318F0495D31FD4052419302D08E
:10143000A9F7EACFB4E0A695979587957795679534
:10144000BA95C9F700976105710508959B01AC0134
:101450000A2E06945795479537952795BA95C9F75B
:10146000620F731F841F951FA01D0895F999FECF69
:1014700092BD81BDF89A992780B50895262FF999D4
:10148000FECF92BD81BDF89A019700B4021639F0E3
:101490001FBA20BD0FB6F894FA9AF99A0FBE0895B4
:1014A0002F923F924F925F926F927F928F929F9274
:1014B000AF92BF92CF92DF92EF92FF920F931F9362
:1014C000CF93DF93CDB7DEB7CA1BDB0B0FB6F89413
:1014D000DEBF0FBECDBF09942A88398848885F8453
:1014E0006E847D848C849B84AA84B984C884DF80C4
:1014F000EE80FD800C811B81AA81B981CE0FD11DA8
:101500000FB6F894DEBF0FBECDBFED010895F8947D
:02151000FFCF0B
:10151200AD01AF01B201B401B701B901BB01BE0116
:10152200C001C301C501C801AD01AF01B201B401DF
:10153200B701B901BB01BE01C001C301C501C801A8
:10154200AD0183008B0093009C00A500B000B900A0
:10155200C400D000DC00E900F700060115012601F5
:1015620037014A015D01720188019F01B801D20170
:10157200EE010B023C6450002532642E25316400DA
:101582004D61747468696173205765617365720097
:1015920045453130392050726F6A656374003C00F2
:1015A20025640033004F4B003E00202020200048DD
:1015B2004F5421005741524D00340035004300433F
:1015C2002300440044230045004600462300470010
:0A15D20047230041004123004200BE
:00000001FF
